:100000000C9444010C9475010C9475010C947501C9
:100010000C9475010C9475010C9475010C94750188
:100020000C9475010C9475010C9475010C94750178
:100030000C9475010C9475010C9475010C94750168
:100040000C9475010C9475010C9475010C94750158
:100050000C9475010C9475010C9475010C94730744
:100060000C9475010C94D0030C94C0040C9475018D
:100070000C9475010C9475010C9475010C94750128
:100080000C9475010C9475010C9475010C94750118
:100090000C9404040C94FF040C9475010C947501E9
:1000A0000C9475010C9475010C9475010C947501F8
:1000B0000C9475010C9475010C9475010C947501E8
:1000C0000C9475010C9475010C9475010C94380412
:1000D0000C943E050C9475010C946C040C947D05F5
:1000E0000C947501DA01DD01D001D4011402E101A3
:1000F000E501EB01EF01F301F901FD010102140239
:1001000007020B020F020C94EB010C940F020C94EB
:100110003D060C946E030C949F040C94DD010C942A
:10012000DA010C94E5010C94D4010C9425030C9491
:1001300079030C9435030C94F9010C94AD020C94E2
:10014000D0010C9401020C94FD010C94EF010C946D
:1001500007020C940B020C9414020C944E030C94A2
:10016000F3010C94E1010000090A02080B0C0D07D1
:100170000603040100000000000000000000000071
:10018000000000000000000000000000000000006F
:10019000000011100F00000000000000000000002F
:1001A000000000000000000000000000010210201C
:1001B000200808102040102040800201020108049D
:1001C0000201010204081020408080402010080431
:1001D000020180040201804020100804020108048A
:1001E00002010102040810204080010204081020CE
:1001F00040800505050507050808080802020202F7
:100200000A0A0808040404040101010101010101B2
:100210000303030303030303040707070C0C0C0C7D
:100220000C0C0C0C02020202060606060606060666
:100230000B0B0B0B0B0B0B0B0000200023002600FD
:1002400029002C002F0032000001000003010601EC
:10025000090100002200250028002B002E0031009B
:10026000340002010000050108010B01000021001B
:10027000240027002A002D00300033000101000077
:10028000040107010A013D0611241FBECFEFD1E290
:10029000DEBFCDBF00E00CBF12E0A0E0B2E0E0EABC
:1002A000F0E100E00BBF02C007900D92A433B1074C
:1002B000D9F724E0A4E3B2E001C01D92A93EB20741
:1002C000E1F712E0C8E8D2E000E006C02297010999
:1002D000FE010BBF0E944A08C638D10780E008071C
:1002E000A9F70E9418030C941F080C94000061E009
:1002F000809102020E94150260E0809100020E943B
:10030000150240E052EC61E070E08EE992E00C945E
:10031000BC05CF93DF93809100020E948402EC0120
:10032000909335028093340281309105B1F461E0FD
:10033000809102020E944E02809136029091370213
:10034000892B01F564E072E08EE992E00E940603D9
:10035000D0933702C093360215C060E0809102024C
:100360000E944E028091360290913702019751F41B
:1003700065E172E08EE992E00E9406031092370276
:1003800010923602DF91CF91089590E0FC013197F1
:10039000E131F10508F048C0EE58FF4F0C944408D5
:1003A000809180008F7703C0809180008F7D809343
:1003B0008000089584B58F7702C084B58F7D84BD99
:1003C00008958091B0008F7703C08091B0008F7D39
:1003D0008093B0000895809190008F7707C080913E
:1003E00090008F7D03C080919000877F8093900064
:1003F00008958091A0008F7707C08091A0008F7D25
:1004000003C08091A000877F8093A0000895809111
:1004100020018F7707C0809120018F7D03C08091DC
:100420002001877F809320010895CF93DF9390E090
:10043000FC01E455FE4F2491FC01EE50FE4F8491E7
:10044000882349F190E0880F991FFC01E459FD4F82
:10045000A591B4918E5A9D4FFC01C591D4919FB73F
:10046000611108C0F8948C91209582238C93888127
:1004700082230AC0623051F4F8948C91322F309567
:1004800083238C938881822B888304C0F8948C9179
:10049000822B8C939FBFDF91CF9108950F931F9371
:1004A000CF93DF931F92CDB7DEB7282F30E0F9014D
:1004B000EA59FE4F8491F901E455FE4F1491F90178
:1004C000EE50FE4F04910023C9F0882321F0698388
:1004D0000E94C5016981E02FF0E0EE0FFF1FEE5A88
:1004E000FD4FA591B4919FB7F8948C91611103C011
:1004F0001095812301C0812B8C939FBF0F90DF91BA
:10050000CF911F910F910895CF93DF93282F30E063
:10051000F901EA59FE4F8491F901E455FE4FD49157
:10052000F901EE50FE4FC491CC2391F081110E944D
:10053000C501EC2FF0E0EE0FFF1FE85CFD4FA59129
:10054000B4912C912D2381E090E021F480E002C051
:1005500080E090E0DF91CF910895CF92DF92EF920B
:10056000FF920F931F93CF93DF936C017A01EB01FE
:10057000E60EF71E00E010E0CE15DF0561F0699190
:10058000D601ED91FC910190F081E02DC601199505
:10059000080F191FF1CFC801DF91CF911F910F9163
:1005A000FF90EF90DF90CF9008956115710581F075
:1005B000DB010D900020E9F7AD0141505109461BC8
:1005C000570BDC01ED91FC910280F381E02D199431
:1005D00080E090E00895DC01ED91FC910190F081C4
:1005E000E02D19940F931F93CF93DF93EC016DE0EF
:1005F0000E94EB028C016AE0CE010E94EB02800FA8
:10060000911FDF91CF911F910F9108950F931F9329
:10061000CF93DF93EC010E94D5028C01CE010E94A2
:10062000F202800F911FDF91CF911F910F910895DA
:100630000E94BD070E947701CFE9D4E00E948901A2
:100640002097E1F30E949F04F9CFFC0124853585B2
:10065000F901E05CFF4F80819181329620813181E8
:10066000821B930B8F7399270895FC0184859585D0
:10067000FC01E05CFF4F4081518132962081318145
:100680004217530741F00190F081E02DE80FF91F68
:10069000808190E008958FEF9FEF0895FC0184859D
:1006A0009585FC01E05CFF4F4081518132962081AD
:1006B00031814217530779F0A081B181A80FB91F8A
:1006C0008C91208131812F5F3F4F2F7333273183EE
:1006D000208390E008958FEF9FEF0895FC0181A1A2
:1006E000882329F0A489B5898C9186FFFBCF11A2BC
:1006F0000895CF93DF93FC0126853785D901A05C4F
:10070000BF4F8D919C91119701968F739927E901A5
:10071000CE5BDF4F4881598184179507D9F30D903F
:10072000BC91A02DA20FB31F6C93A685B785A05CCA
:10073000BF4F11969C938E93A689B7892C9181E027
:1007400090E0078C02C0880F991F0A94E2F7282BCB
:100750002C9381E081A30488F589E02D8081806459
:10076000808381E090E0DF91CF910895FB01E05C10
:10077000FF4F208131812F5F3F4F2F733327DB01E4
:10078000AE5BBF4F4D915C912417350739F0A081C6
:10079000B181A60FB71F8C933183208308950895EC
:1007A0001F920F920FB60F9211240BB60F922F9338
:1007B0003F934F935F936F937F938F939F93AF93E9
:1007C000BF93EF93FF938091C00082FD07C080919B
:1007D000C6006CE974E00E94B60302C08091C600B6
:1007E000FF91EF91BF91AF919F918F917F916F9109
:1007F0005F914F913F912F910F900BBE0F900FBEC5
:100800000F901F90189508951F920F920FB60F9298
:1008100011240BB60F922F933F934F935F936F93D7
:100820007F938F939F93AF93BF93EF93FF938091A9
:10083000C80082FD07C08091CE0064E174E00E9490
:10084000B60302C08091CE00FF91EF91BF91AF91AE
:100850009F918F917F916F915F914F913F912F91D8
:100860000F900BBE0F900FBE0F901F90189508951C
:100870001F920F920FB60F9211240BB60F922F9367
:100880003F934F935F936F937F938F939F93AF9318
:10089000BF93EF93FF938091D00082FD07C08091BA
:1008A000D6006CE873E00E94B60302C08091D600C7
:1008B000FF91EF91BF91AF919F918F917F916F9138
:1008C0005F914F913F912F910F900BBE0F900FBEF4
:1008D0000F901F90189508951F920F920FB60F92C8
:1008E00011240BB60F922F933F934F935F936F9307
:1008F0007F938F939F93AF93BF93EF93FF938091D9
:10090000300182FD07C08091360164E073E00E94EF
:10091000B60302C080913601FF91EF91BF91AF9174
:100920009F918F917F916F915F914F913F912F9107
:100930000F900BBE0F900FBE0F901F9018958EE971
:1009400092E00E942503892B11F00E94CF038CE7CF
:1009500092E00E942503892B11F00E9403048AE58E
:1009600092E00E942503892B11F00E94370488E34E
:1009700092E00E942503892B11F00C946B040895DA
:100980001F920F920FB60F9211240BB60F922F9356
:100990003F938F939F93EF93FF932091980430910F
:1009A000990480919A0490919B042817390731F497
:1009B0008091C1008F7D8093C10014C0E0919A04A2
:1009C000F0919B04E85AFB4F208180919A0490910A
:1009D0009B0401968F73992790939B0480939A04AC
:1009E0002093C600FF91EF919F918F913F912F919E
:1009F0000F900BBE0F900FBE0F901F9018951F9277
:100A00000F920FB60F9211240BB60F922F933F93B4
:100A10008F939F93EF93FF932091100430911104D3
:100A200080911204909113042817390731F48091B2
:100A3000C9008F7D8093C90014C0E0911204F09129
:100A40001304E053FC4F2081809112049091130411
:100A500001968F7399279093130480931204209327
:100A6000CE00FF91EF919F918F913F912F910F9029
:100A70000BBE0F900FBE0F901F9018951F920F92F4
:100A80000FB60F9211240BB60F922F933F938F93B3
:100A90009F93EF93FF932091880330918903809176
:100AA0008A0390918B032817390731F48091D10084
:100AB0008F7D8093D10014C0E0918A03F0918B0365
:100AC000E85BFC4F208180918A0390918B03019613
:100AD0008F73992790938B0380938A032093D6007A
:100AE000FF91EF919F918F913F912F910F900BBEAE
:100AF0000F900FBE0F901F9018951F920F920FB678
:100B00000F9211240BB60F922F933F938F939F93C5
:100B1000EF93FF9320910003309101038091020332
:100B2000909103032817390731F4809131018F7DAB
:100B30008093310114C0E0910203F0910303E0546B
:100B4000FD4F2081809102039091030301968F73E2
:100B50009927909303038093020320933601FF911A
:100B6000EF919F918F913F912F910F900BBE0F901E
:100B70000FBE0F901F901895CF92DF92EF92FF92C9
:100B8000CF93DF93EC016A017B01411581EE580799
:100B900061057105F9F0EC89FD8981E090E008A01C
:100BA00002C0880F991F0A94E2F7808360E079E021
:100BB0008DE390E0A70196010E942208215031099F
:100BC000410951095695479537952795211580E19B
:100BD000380798F0EC89FD89108260E874E88EE1AE
:100BE00090E0A70196010E94220821503109410995
:100BF00051095695479537952795E889F9893083A6
:100C0000EA89FB89208319A2EE89FF89408181E06E
:100C100090E09C010C8C02C0220F331F0A94E2F773
:100C2000422B4083EE89FF8940819C010D8C02C0DC
:100C3000220F331F0A94E2F7422B4083EE89FF898B
:100C400040819C010E8C02C0220F331F0A94E2F7F0
:100C5000422B4083EE89FF8920810F8C02C0880FD0
:100C6000991F0A94E2F7809582238083DF91CF91C8
:100C7000FF90EF90DF90CF900895CF931092A10254
:100C80001092A00288EE93E0A0E0B0E08093A20270
:100C90009093A302A093A402B093A50227E232E0AE
:100CA00030939F0220939E024CE954E05093AB0294
:100CB0004093AA0248E554E05093AD024093AC0241
:100CC00045EC50E05093AF024093AE0244EC50E04C
:100CD0005093B1024093B00240EC50E05093B30205
:100CE0004093B20241EC50E05093B5024093B402FD
:100CF00042EC50E05093B7024093B60246EC50E00D
:100D00005093B9024093B802C4E0C093BA02F3E032
:100D1000F093BB02E7E0E093BC0275E07093BD0284
:100D200061E06093BE0210927F0210927E02809377
:100D3000800290938102A0938202B0938302309349
:100D40007D0220937C0244E154E050938902409359
:100D5000880240ED53E050938B0240938A024DECA1
:100D600050E050938D0240938C024CEC50E0509335
:100D70008F0240938E0248EC50E0509391024093D2
:100D8000900249EC50E050939302409392024AEC57
:100D900050E050939502409394024EEC50E05093F3
:100DA000970240939602C0939802F0939902E093C1
:100DB0009A0270939B0260939C0210925D021092C3
:100DC0005C0280935E0290935F02A0936002B093F6
:100DD000610230935B0220935A024CE853E0509337
:100DE00067024093660248E453E0509369024093DF
:100DF000680245ED50E050936B0240936A0244ED67
:100E000050E050936D0240936C0240ED50E05093DF
:100E10006F0240936E0241ED50E050937102409397
:100E2000700242ED50E0509373024093720246ED1F
:100E300050E05093750240937402C0937602F09391
:100E40007702E09378027093790260937A021092AD
:100E50003B0210923A0280933C0290933D02A09391
:100E60003E02B0933F02309339022093380284E06F
:100E700093E0909345028093440280EC92E090933B
:100E800047028093460285E391E090934902809364
:100E9000480284E391E090934B0280934A0280E3FE
:100EA00091E090934D0280934C0281E391E0909306
:100EB0004F0280934E0282E391E09093510280931F
:100EC000500286E391E09093530280935202C093C4
:100ED0005402F0935502E0935602709357026093C8
:100EE0005802CF9108951F920F920FB60F921124BE
:100EF0002F933F938F939F93AF93BF938091E10480
:100F00009091E204A091E304B091E4043091E004F4
:100F100023E0230F2D3720F40196A11DB11D05C03C
:100F200026E8230F0296A11DB11D2093E0048093B3
:100F3000E1049093E204A093E304B093E40480916D
:100F4000E5049091E604A091E704B091E8040196CD
:100F5000A11DB11D8093E5049093E604A093E704DE
:100F6000B093E804BF91AF919F918F913F912F91E2
:100F70000F900FBE0F901F901895789484B58260E3
:100F800084BD84B5816084BD85B5826085BD85B52D
:100F9000816085BDEEE6F0E0808181608083E1E8DC
:100FA000F0E0108280818260808380818160808314
:100FB000E0E8F0E0808181608083E1EBF0E0808117
:100FC00084608083E0EBF0E0808181608083E1E9F0
:100FD000F0E0808182608083808181608083E0E9AD
:100FE000F0E0808181608083E1EAF0E080818260CE
:100FF0008083808181608083E0EAF0E0808181608D
:101000008083E1E2F1E08081826080838081816081
:101010008083E0E2F1E0808181608083EAE7F0E0B4
:101020008081846080838081826080838081816010
:1010300080838081806880831092C1000895F89435
:101040000C944E08A1E21A2EAA1BBB1BFD010DC079
:10105000AA1FBB1FEE1FFF1FA217B307E407F50768
:1010600020F0A21BB30BE40BF50B661F771F881F44
:10107000991F1A9469F760957095809590959B01DA
:10108000AC01BD01CF010895EE0FFF1F0590F49153
:10109000E02D19940790F691E02D1994F894FFCF64
:1010A00003000D004D6F74696F6E20646574656395
:1010B00074656421004D6F74696F6E20656E6465A0
:1010C000642100000000007903AD0225034E0335C2
:0410D000036E0300A8
:00000001FF
