:100000000C945D000C9485000C9485000C94850084
:100010000C9485000C9485000C9485000C9485004C
:100020000C9485000C9485000C9485000C9485003C
:100030000C9485000C9485000C9485000C9485002C
:100040000C9422010C9485000C9485000C9485007E
:100050000C9485000C9485000C9485000C9485000C
:100060000C9485000C94850000000007000201003C
:100070000003040600000000000000000102040864
:100080001020408001020408102001020408102002
:10009000040404040404040402020202020203032E
:1000A0000303030300000000250028002B000000CC
:1000B0000000240027002A000F0111241FBECFEFEB
:1000C000D8E0DEBFCDBF11E0A0E0B1E0E0E3FAE0B0
:1000D00002C005900D92AE34B107D9F721E0AEE42D
:1000E000B1E001C01D92A037B207E1F710E0CAEB02
:1000F000D0E004C02297FE010E941205C83BD10740
:10010000C9F70E9481020C94EB040C94000080E07B
:100110000E94BE0190934F0180934E01893E23E0DF
:10012000920704F5823391058CF08A3F91058CF09B
:10013000823C21E0920784F08A3822E092077CF02A
:10014000823593407CF484E090E0089580E090E074
:10015000089581E090E0089582E090E0089583E0C2
:1001600090E0089585E090E0089520E042E060E1AD
:1001700082E591E00E94730340E060E082E591E057
:100180000E943E0369E071E082E591E00C9419025F
:1001900041E069E082E591E00E943E030E946C012B
:1001A00028EE33E040E050E00E94EE04BA01A901DD
:1001B0002AE030E082E591E00E94740241E060E0D4
:1001C00082E591E00E943E030E94870090935101D6
:1001D0008093500182309105B1F02CF4009751F0DA
:1001E000019771F008958430910581F034F00597FE
:1001F00081F008956AE171E00EC061E271E00BC028
:1002000069E271E008C060E371E005C067E371E096
:1002100002C06EE371E082E591E00C941902CF9286
:10022000EF920F9387E0C82E96E0E92E05E024E0D8
:1002300049E068E082E591E00E9427040F91EF9089
:10024000CF9008951F920F920FB60F9211242F9303
:100250003F938F939F93AF93BF9380916801909149
:100260006901A0916A01B0916B013091670123E0AF
:10027000230F2D3720F40196A11DB11D05C026E8DE
:10028000230F0296A11DB11D209367018093680181
:1002900090936901A0936A01B0936B0180916C0106
:1002A00090916D01A0916E01B0916F010196A11D19
:1002B000B11D80936C0190936D01A0936E01B0937A
:1002C0006F01BF91AF919F918F913F912F910F90AF
:1002D0000FBE0F901F9018952FB7F894609168018A
:1002E0007091690180916A0190916B012FBF08950F
:1002F0000197009739F0880F991F880F991F02976F
:100300000197F1F70895789484B5826084BD84B52F
:10031000816084BD85B5826085BD85B5816085BD00
:10032000EEE6F0E0808181608083E1E8F0E0108219
:10033000808182608083808181608083E0E8F0E05A
:10034000808181608083E1EBF0E080818460808344
:10035000E0EBF0E0808181608083EAE7F0E080817B
:1003600084608083808182608083808181608083DB
:100370008081806880831092C10008958E3008F0DB
:100380008E5087702091000190E4299F90011124E4
:10039000822B80937C0080917A00806480937A0025
:1003A00080917A0086FDFCCF8091780020917900C1
:1003B00090E0922B0895CF92DF92EF92FF920F93ED
:1003C0001F93CF93DF936C017A01EB01E60EF71ECA
:1003D00000E010E0CE15DF0561F06991D601ED91E6
:1003E000FC910190F081E02DC6010995080F191FBD
:1003F000F1CFC801DF91CF911F910F91FF90EF9046
:10040000DF90CF9008956115710581F0DB010D90AB
:100410000020E9F7AD0141505109461B570BDC01A3
:10042000ED91FC910280F381E02D099480E090E051
:1004300008950C9403028F929F92AF92BF92CF9235
:10044000DF92EF92FF920F931F93CF93DF93CDB77D
:10045000DEB7A1970FB6F894DEBF0FBECDBF7C010B
:10046000C42EE52FCB01D22E19A221E02D1510F0BC
:100470002AE0D22E8E010F5D1F4F8D2C912CA12CC6
:10048000B12C6C2D7E2FA50194010E94EE048C2DC1
:10049000D29E80191124015011098A3014F4805D14
:1004A00001C0895CF80180832115310541055105A2
:1004B00021F0C22EE32FCA01E4CFB801C7010E9488
:1004C0000302A1960FB6F894DEBF0FBECDBFDF9139
:1004D000CF911F910F91FF90EF90DF90CF90BF9041
:1004E000AF909F908F9008952115310541F4DC0164
:1004F000ED91FC910190F081E02D642F09940C9412
:100500001B020E9483010E94B500C0E0D0E00E945F
:10051000C8002097E1F30E940000F9CFCF93DF934A
:10052000EC0160E08E810E94B50481E090E00E94C1
:10053000780161E08E810E94B50481E090E00E9424
:10054000780160E08E810E94B50484E690E0DF913E
:10055000CF910C947801CF92DF92EF92FF920F939C
:100560001F93CF93DF937C01C0E0D0E0C62ED12C47
:1005700087010C0F1D1F61E0F80187810E947C0438
:10058000B6010C2E02C0759567950A94E2F761706A
:10059000F80187810E94B5042196C430D10541F746
:1005A000C701DF91CF911F910F91FF90EF90DF90E6
:1005B000CF900C948E02CF92DF92EF92FF920F9326
:1005C0001F93CF93DF937C01C0E0D0E0C62ED12CE7
:1005D00087010C0F1D1F61E0F80187810E947C04D8
:1005E000B6010C2E02C0759567950A94E2F761700A
:1005F000F80187810E94B5042196C830D10541F7E2
:10060000C701DF91CF911F910F91FF90EF90DF9085
:10061000CF900C948E021F93CF93DF93EC01162F93
:10062000642F8C810E94B5048D818F3F19F060E0AA
:100630000E94B5048F85612F84FF06C0CE01DF9133
:10064000CF911F910C94DB0270E084E07595679563
:100650008A95E1F7CE010E94AB02612FCE01DF91B6
:10066000CF911F910C94AB0240E00C940B0361E01E
:100670000E94340380ED97E00C947801CF93DF93D0
:10068000CDB7DEB728970FB6F894DEBF0FBECDBF4B
:1006900028E0E1E0F1E0DE01119601900D922A954B
:1006A000E1F7FC012389421710F04FEF420FFE01E2
:1006B0003196E40FF11DE40FF11D2081260F206813
:1006C000622F28960FB6F894DEBF0FBECDBFDF9124
:1006D000CF910C943403FC016089262F2460208B79
:1006E0006C600C943403CF93DF93EC01423018F02C
:1006F0008F8588608F874B8B1C8A222329F041309D
:1007000019F48F8584608F8780E593EC0E947801CF
:1007100060E08C810E94B50460E08E810E94B50487
:100720008D818F3F19F060E00E94B5046F8564FDF4
:100730001DC063E0CE010E94AB0284E991E10E94FA
:10074000780163E0CE010E94AB0284E991E10E944E
:10075000780163E0CE010E94AB0286E990E00E943E
:10076000780162E0CE010E94AB0216C06062CE0149
:100770000E94340384E991E10E9478016F856062F0
:10078000CE010E94340386E990E00E9478016F85D3
:100790006062CE010E9434036F856062CE010E94C8
:1007A000340384E0888BCE010E946B03CE010E944B
:1007B000370382E0898B66E0CE01DF91CF910C9404
:1007C00034036F927F928F92AF92CF92EF920F93FA
:1007D0001F93CF93DF93CDB7DEB73C01162F842F45
:1007E0005D854E853F859889F30184832583068343
:1007F000E782C086A186828653874487358796879D
:1008000061E00E947C04F30185818F3F19F061E073
:100810000E947C0461E0F30186810E947C04112324
:1008200019F0F301178603C080E1F301878720E008
:1008300041E060E1C301DF91CF911F910F91EF90F3
:10084000CF90AF908F907F906F900C9473038F92A6
:10085000AF92CF92EF920F93DC0113961C921E92EF
:100860001297E9E4F1E0ED93FC931F921F921F921F
:100870001F928C2CAE2CC02EE22E042F2FEF462F71
:1008800061E00E94E1030F900F900F900F900F9185
:10089000EF90CF90AF908F90089541E00E940B03AE
:1008A00081E090E00895833081F028F4813099F060
:1008B0008230A1F008958630A9F08730B9F08430F5
:1008C000D1F4809180008F7D03C0809180008F776C
:1008D00080938000089584B58F7702C084B58F7DA2
:1008E00084BD08958091B0008F7703C08091B000DF
:1008F0008F7D8093B0000895CF93DF9390E0FC014B
:10090000E458FF4F2491FC01E057FF4F8491882366
:1009100049F190E0880F991FFC01E255FF4FA59126
:10092000B4918C559F4FFC01C591D4919FB7611133
:1009300008C0F8948C91209582238C93888182231F
:100940000AC0623051F4F8948C91322F3095832391
:100950008C938881822B888304C0F8948C91822B9D
:100960008C939FBFDF91CF9108950F931F93CF93E7
:10097000DF931F92CDB7DEB7282F30E0F901E85999
:10098000FF4F8491F901E458FF4F1491F901E057AA
:10099000FF4F04910023C9F0882321F069830E944E
:1009A00053046981E02FF0E0EE0FFF1FEC55FF4F7D
:1009B000A591B4919FB7F8948C91611103C01095E3
:1009C000812301C0812B8C939FBF0F90DF91CF912A
:1009D0001F910F910895F8940C941605A1E21A2E18
:1009E000AA1BBB1BFD010DC0AA1FBB1FEE1FFF1FD3
:1009F000A217B307E407F50720F0A21BB30BE40B23
:100A0000F50B661F771F881F991F1A9469F7609569
:100A10007095809590959B01AC01BD01CF01089523
:100A2000EE0FFF1F0590F491E02D0994F894FFCF8D
:100A30000100004000140054005075736820746871
:100A40006520627574746F6E730052494748542074
:100A5000004C4546542020200055502020202000E6
:100A6000444F574E20200053454C454354004E4FB1
:0E0A70004E45202000000000004D04DB010078
:00000001FF
