:100000000C9447010C9478010C9478010C947801BD
:100010000C9478010C9478010C9478010C9478017C
:100020000C9478010C9478010C9478010C9478016C
:100030000C9478010C9478010C9478010C9478015C
:100040000C9478010C9478010C9478010C9478014C
:100050000C9478010C9478010C9478010C9474023F
:100060000C9478010C9435060C9425070C947801B7
:100070000C9478010C9478010C9478010C9478011C
:100080000C9478010C9478010C9478010C9478010C
:100090000C9469060C9464070C9478010C94780114
:1000A0000C9478010C9478010C9478010C947801EC
:1000B0000C9478010C9478010C9478010C947801DC
:1000C0000C9478010C9478010C9478010C949D06A2
:1000D0000C94A3070C9478010C94D1060C94E207BD
:1000E0000C947801310E340E270E2B0E6B0E380E49
:1000F0003C0E420E460E4A0E500E540E580E6B0E1B
:100100005E0E620E660E0C94620E0C945E0E0C94E3
:10011000660E0C94B3050C946B0E0C949A050C941B
:10012000540E0C94340E0C946D020C943C0E0C94F2
:100130008A050C94D3050C94DE050C9404070C94EA
:10014000580E0C94A2080C944A0E0C94420E0C9477
:10015000270E0C942B0E0C9480030C94500E0C94D0
:10016000380E0C94460E0C94310E0000090A020859
:100170000B0C0D0706030401000000000000000046
:10018000000000000000000000000000000000006F
:1001900000000000000011100F000000000000002F
:1001A000000000000000000000000000000000004F
:1001B0000102102020080810204010204080020179
:1001C000020108040201010204081020408080405E
:1001D000201008040201800402018040201008045D
:1001E00002010804020101020408102040800102FB
:1001F00004081020408005050505070508080808C3
:10020000020202020A0A08080404040401010101AE
:1002100001010101030303030303030304070707A9
:100220000C0C0C0C0C0C0C0C02020202060606064E
:10023000060606060B0B0B0B0B0B0B0B000020002E
:100240002300260029002C002F00320000010000AE
:1002500003010601090100002200250028002B00EF
:100260002E003100340002010000050108010B01DD
:1002700000002100240027002A002D003000330058
:1002800001010000040107010A016D02A208112406
:100290001FBECFEFD1E2DEBFCDBF00E00CBF12E04A
:1002A000A0E0B2E0E4E0F3E200E00BBF02C00790A0
:1002B0000D92A238B107D9F725E0A2E8B2E001C05B
:1002C0001D92A534B207E1F712E0CEE8D2E000E0DB
:1002D00006C022970109FE010BBF0E947C11CA389B
:1002E000D10780E00807A9F70E947D050C94DB0E7A
:1002F0000C94000040E052EC61E070E083E093E099
:100300000E94210860E072E083E093E00E94DB033A
:1003100082E892E00C94F9094F925F926F927F927B
:100320008F929F92AF92BF92CF92DF92EF92FF9205
:100330000F931F93CF93DF93CDB7DEB728970FB6F8
:10034000F894DEBF0FBECDBF64EC79E080E090E0B2
:100350000E94ED0260E082E892E00E94D60D4B011F
:100360005C0140E060E082E892E00E94760D6983E3
:100370007A838B839C8340E061E082E892E00E9474
:10038000760D2B013C01A5019401C501B4010E9429
:100390003B11811112C029813A814B815C81CA01D4
:1003A000B9010E943B11811108C0A3019201C30150
:1003B000B2010E943B11882319F06CE072E073C017
:1003C000EE24E39495018401B301A20182E892E056
:1003D0000E940B0A6D837E838F839887E12C9501A1
:1003E000840149815A816B817C8182E892E00E947C
:1003F0000B0A6B017C016CE272E083E093E00E94E7
:10040000BE0322E030E0B501A40183E093E00E9446
:100410007B0567E372E083E093E00E94BE036BE339
:1004200072E083E093E00E94BE0322E030E0498165
:100430005A816B817C8183E093E00E947B0569E4B3
:1004400072E083E093E00E94BE0322E030E0B3015B
:10045000A20183E093E00E947B056EE472E083E0FA
:1004600093E00E94BE0363E572E083E093E00E94A4
:10047000BE0322E030E0B701A60183E093E00E94D2
:100480007B0569E472E083E093E00E94BE0322E012
:1004900030E04D815E816F81788583E093E00E943A
:1004A0007B0560E672E083E093E028960FB6F8944F
:1004B000DEBF0FBECDBFDF91CF911F910F91FF9097
:1004C000EF90DF90CF90BF90AF909F908F907F90F4
:1004D0006F905F904F900C94DB0326E046E162E062
:1004E00082E892E00C94D8091F920F920FB60F92F7
:1004F00011242F933F938F939F93AF93BF9380913A
:10050000950290919602A0919702B0919802309135
:10051000940223E0230F2D3720F40196A11DB11D75
:1005200005C026E8230F0296A11DB11D2093940259
:100530008093950290939602A0939702B0939802AD
:100540008091990290919A02A0919B02B0919C0295
:100550000196A11DB11D8093990290939A02A093D8
:100560009B02B0939C02BF91AF919F918F913F915D
:100570002F910F900FBE0F901F9018952FB7F894E2
:1005800060919502709196028091970290919802E5
:100590002FBF08953FB7F8948091990290919A02E5
:1005A000A0919B02B0919C0226B5A89B05C02F3F4D
:1005B00019F00196A11DB11D3FBF6627782F892F25
:1005C0009A2F620F711D811D911D42E0660F771FEA
:1005D000881F991F4A95D1F70895CF92DF92EF9225
:1005E000FF92CF93DF936B017C010E94CA02EB0163
:1005F000C114D104E104F10479F00E94CA026C1B19
:100600007D0B683E7340A0F381E0C81AD108E10871
:10061000F108C851DC4FECCFDF91CF91FF90EF9004
:10062000DF90CF9008950197009739F0880F991FB8
:10063000880F991F02970197F1F70895789484B570
:10064000826084BD84B5816084BD85B5826085BDCE
:1006500085B5816085BDEEE6F0E0808181608083B4
:10066000E1E8F0E010828081826080838081816097
:100670008083E0E8F0E0808181608083E1EBF0E05E
:10068000808184608083E0EBF0E080818160808302
:10069000E1E9F0E0808182608083808181608083F5
:1006A000E0E9F0E0808181608083E1EAF0E0808130
:1006B00082608083808181608083E0EAF0E08081D5
:1006C00081608083E1E2F1E08081826080838081CB
:1006D00081608083E0E2F1E0808181608083EAE7ED
:1006E000F0E080818460808380818260808380816B
:1006F000816080838081806880831092C10008952A
:10070000CF92DF92EF92FF920F931F93CF93DF93DD
:100710006C017A01EB01E60EF71E00E010E0CE1549
:10072000DF0561F06991D601ED91FC910190F081B6
:10073000E02DC6011995080F191FF1CFC801DF91EF
:10074000CF911F910F91FF90EF90DF90CF90089580
:100750006115710581F0DB010D900020E9F7AD0115
:1007600041505109461B570BDC01ED91FC91028071
:10077000F381E02D199480E090E008950C94A80393
:10078000DC01ED91FC910190F081E02D19940F9323
:100790001F93CF93DF93EC016DE00E94C0038C01A7
:1007A0006AE0CE010E94C003800F911FDF91CF91BC
:1007B0001F910F9108950F931F93CF93DF93EC0137
:1007C0000E94A8038C01CE010E94C703800F911FD5
:1007D000DF91CF911F910F9108958F929F92AF92C9
:1007E000BF92CF92DF92EF92FF920F931F93CF931E
:1007F000DF93CDB7DEB7A1970FB6F894DEBF0FBE7B
:10080000CDBF7C01C42EE52FCB01D22E19A221E051
:100810002D1510F02AE0D22E8E010F5D1F4F8D2C6A
:10082000912CA12CB12C6C2D7E2FA50194010E943E
:1008300054118C2DD29E80191124015011098A3037
:1008400014F4805D01C0895CF801808321153105B5
:100850004105510521F0C22EE32FCA01E4CFB801B2
:10086000C7010E94A803A1960FB6F894DEBF0FBE81
:10087000CDBFDF91CF911F910F91FF90EF90DF904F
:10088000CF90BF90AF909F908F900895CF92DF92BE
:10089000EF92FF920F931F93CF93DF93EC016A01C6
:1008A0007B012115310579F4E881F9810190F0810E
:1008B000E02D642FDF91CF911F910F91FF90EF906A
:1008C000DF90CF9019942A303105E9F477FF1AC0F0
:1008D0006DE20E94C0038C0144275527BA014C19D0
:1008E0005D096E097F092AE0CE010E94ED03800FA9
:1008F000911FDF91CF911F910F91FF90EF90DF90AB
:10090000CF9008952AE0B701A601CE01DF91CF91E3
:100910001F910F91FF90EF90DF90CF900C94ED031B
:100920004F925F926F927F928F929F92AF92BF92FF
:10093000CF92DF92EF92FF920F931F93CF93DF93AB
:10094000EC016A017B01B22E9A01AB01C701B6012D
:100950000E943B11882319F064E672E027C026014B
:100960003701E89477F82FEF3FEF4FE75FE7C301D8
:10097000B2010E943B1181110DC02FEF3FEF4FE7F5
:100980005FE7C301B2010E94430F18161CF468E62A
:1009900072E00CC02FEF3FEF4FE75FE4C701B601F5
:1009A0000E9492101816ACF46CE672E0CE01DF9152
:1009B000CF911F910F91FF90EF90DF90CF90BF905C
:1009C000AF909F908F907F906F905F904F900C941E
:1009D000A8032FEF3FEF4FE75FECC701B6010E947E
:1009E000430F87FDE1CF20E030E0A901C701B60148
:1009F0000E94430F87FF0AC06DE2CE010E94C00330
:100A00008C01F7FAF094F7F8F09402C000E010E0DF
:100A1000A12C60E070E080E09FE3AB1441F020E0A7
:100A200030E040E251E40E94470FA394F6CF9B01CF
:100A3000AC01C701B6010E94DF0E6B017C010E9470
:100A4000B40F2B013C010E94E00F9B01AC01C701D8
:100A5000B6010E94DE0E6B017C012AE0B301A20107
:100A6000CE010E94ED03080F191FBB2039F060E78B
:100A700072E0CE010E94A803080F191F7B2C77207B
:100A800041F120E030E040E251E4C701B6010E94AC
:100A900096106B017C010E94AF0F4B01AA2497FCBA
:100AA000A094BA2C2AE030E0B501A401CE010E9446
:100AB0004604080F191FC501B4010E94E20F9B01F3
:100AC000AC01C701B6010E94DE0E6B017C017A9475
:100AD000D6CFC801DF91CF911F910F91FF90EF907A
:100AE000DF90CF90BF90AF909F908F907F906F904E
:100AF0005F904F9008950C9490040E941E030E94F2
:100B00007A01C4E0D7E00E948C012097E1F30E94B3
:100B10000407F9CFFC0124853585F901E05CFF4F1E
:100B200080819181329620813181821B930B8F735A
:100B300099270895FC0184859585FC01E05CFF4FB1
:100B4000408151813296208131814217530741F013
:100B50000190F081E02DE80FF91F808190E0089569
:100B60008FEF9FEF0895FC0184859585FC01E05C83
:100B7000FF4F4081518132962081318142175307C6
:100B800079F0A081B181A80FB91F8C9120813181AA
:100B90002F5F3F4F2F7333273183208390E00895D9
:100BA0008FEF9FEF0895FC0181A1882329F0A4898C
:100BB000B5898C9186FFFBCF11A20895CF93DF9367
:100BC000FC0126853785D901A05CBF4F8D919C9192
:100BD000119701968F739927E901CE5BDF4F48810A
:100BE000598184179507D9F30D90BC91A02DA20FC0
:100BF000B31F6C93A685B785A05CBF4F11969C93DD
:100C00008E93A689B7892C9181E090E0078C02C071
:100C1000880F991F0A94E2F7282B2C9381E081A377
:100C20000488F589E02D80818064808381E090E0F4
:100C3000DF91CF910895FB01E05CFF4F208131816E
:100C40002F5F3F4F2F733327DB01AE5BBF4F4D91BB
:100C50005C912417350739F0A081B181A60FB71F29
:100C60008C9331832083089508951F920F920FB6BD
:100C70000F9211240BB60F922F933F934F935F93D4
:100C80006F937F938F939F93AF93BF93EF93FF9354
:100C90008091C00082FD07C08091C60061E075E0D0
:100CA0000E941B0602C08091C600FF91EF91BF9188
:100CB000AF919F918F917F916F915F914F913F91F4
:100CC0002F910F900BBE0F900FBE0F901F90189595
:100CD00008951F920F920FB60F9211240BB60F9228
:100CE0002F933F934F935F936F937F938F939F9334
:100CF000AF93BF93EF93FF938091C80082FD07C02D
:100D00008091CE0069E774E00E941B0602C08091CA
:100D1000CE00FF91EF91BF91AF919F918F917F9105
:100D20006F915F914F913F912F910F900BBE0F905C
:100D30000FBE0F901F90189508951F920F920FB637
:100D40000F9211240BB60F922F933F934F935F9303
:100D50006F937F938F939F93AF93BF93EF93FF9383
:100D60008091D00082FD07C08091D60061EF73E0D2
:100D70000E941B0602C08091D600FF91EF91BF91A7
:100D8000AF919F918F917F916F915F914F913F9123
:100D90002F910F900BBE0F900FBE0F901F901895C4
:100DA00008951F920F920FB60F9211240BB60F9257
:100DB0002F933F934F935F936F937F938F939F9363
:100DC000AF93BF93EF93FF938091300182FD07C0F3
:100DD0008091360169E673E00E941B0602C0809193
:100DE0003601FF91EF91BF91AF919F918F917F91CC
:100DF0006F915F914F913F912F910F900BBE0F908C
:100E00000FBE0F901F90189583E093E00E948A0513
:100E1000892B11F00E94340681EE92E00E948A052F
:100E2000892B11F00E9468068FEB92E00E948A05E0
:100E3000892B11F00E949C068DE992E00E948A05A0
:100E4000892B11F00C94D00608951F920F920FB6C3
:100E50000F9211240BB60F922F933F938F939F9372
:100E6000EF93FF932091FD043091FE048091FF04E5
:100E7000909100052817390731F48091C1008F7DCA
:100E80008093C10014C0E091FF04F0910005E35489
:100E9000FB4F20818091FF049091000501968F7394
:100EA0009927909300058093FF042093C600FF913B
:100EB000EF919F918F913F912F910F900BBE0F90CB
:100EC0000FBE0F901F9018951F920F920FB60F92A2
:100ED00011240BB60F922F933F938F939F93EF9311
:100EE000FF9320917504309176048091770490915E
:100EF00078042817390731F48091C9008F7D8093D9
:100F0000C90014C0E0917704F0917804EB5CFB4FCA
:100F10002081809177049091780401968F739927AE
:100F200090937804809377042093CE00FF91EF9103
:100F30009F918F913F912F910F900BBE0F900FBEFD
:100F40000F901F9018951F920F920FB60F921124B9
:100F50000BB60F922F933F938F939F93EF93FF9333
:100F60002091ED033091EE038091EF039091F00317
:100F70002817390731F48091D1008F7D8093D100FB
:100F800014C0E091EF03F091F003E355FC4F208192
:100F90008091EF039091F00301968F7399279093BE
:100FA000F0038093EF032093D600FF91EF919F9180
:100FB0008F913F912F910F900BBE0F900FBE0F900E
:100FC0001F9018951F920F920FB60F9211240BB617
:100FD0000F922F933F938F939F93EF93FF932091C3
:100FE0006503309166038091670390916803281729
:100FF000390731F4809131018F7D8093310114C024
:10100000E0916703F0916803EB5DFC4F20818091D4
:1010100067039091680301968F73992790936803F3
:101020008093670320933601FF91EF919F918F91F9
:101030003F912F910F900BBE0F900FBE0F901F90FE
:101040001895CF92DF92EF92FF92CF93DF93EC014E
:101050006A017B01411581EE580761057105F9F0C0
:10106000EC89FD8981E090E008A002C0880F991FFB
:101070000A94E2F7808360E079E08DE390E0A701D5
:1010800096010E9454112150310941095109569588
:10109000479537952795211580E1380798F0EC8919
:1010A000FD89108260E874E88EE190E0A701960166
:1010B0000E94541121503109410951095695479513
:1010C00037952795E889F9893083EA89FB89208358
:1010D00019A2EE89FF89408181E090E09C010C8C8F
:1010E00002C0220F331F0A94E2F7422B4083EE899D
:1010F000FF8940819C010D8C02C0220F331F0A948E
:10110000E2F7422B4083EE89FF8940819C010E8CDF
:1011100002C0220F331F0A94E2F7422B4083EE896C
:10112000FF8920810F8C02C0880F991F0A94E2F773
:10113000809582238083DF91CF91FF90EF90DF90A5
:10114000CF900895CF93109206031092050388EE76
:1011500093E0A0E0B0E08093070390930803A0938E
:101160000903B0930A0326E732E030930403209387
:10117000030341E055E05093100340930F034DEB00
:1011800054E0509312034093110345EC50E0509308
:1011900014034093130344EC50E050931603409320
:1011A000150340EC50E0509318034093170341ECB3
:1011B00050E050931A034093190342EC50E05093CF
:1011C0001C0340931B0346EC50E050931E034093D6
:1011D0001D03C4E0C0931F03F3E0F0932003E7E096
:1011E000E093210375E07093220361E06093230391
:1011F0001092E4021092E3028093E5029093E602DB
:10120000A093E702B093E8023093E2022093E10258
:1012100049E754E05093EE024093ED0245E354E079
:101220005093F0024093EF024DEC50E05093F202E5
:101230004093F1024CEC50E05093F4024093F302DF
:1012400048EC50E05093F6024093F50249EC50E030
:101250005093F8024093F7024AEC50E05093FA02A0
:101260004093F9024EEC50E05093FC024093FB0295
:10127000C093FD02F093FE02E093FF02709300031F
:10128000609301031092C2021092C1028093C302C4
:101290009093C402A093C502B093C6023093C002DB
:1012A0002093BF0241EF53E05093CC024093CB0216
:1012B0004DEA53E05093CE024093CD0245ED50E00D
:1012C0005093D0024093CF0244ED50E05093D202AD
:1012D0004093D10240ED50E05093D4024093D302AA
:1012E00041ED50E05093D6024093D50242ED50E0DC
:1012F0005093D8024093D70246ED50E05093DA0263
:101300004093D902C093DB02F093DC02E093DD024C
:101310007093DE026093DF021092A00210929F028F
:101320008093A1029093A202A093A302B093A4027F
:1013300030939E0220939D0289E693E09093AA0247
:101340008093A90285E293E09093AC028093AB0274
:1013500085E391E09093AE028093AD0284E391E047
:101360009093B0028093AF0280E391E09093B20239
:101370008093B10281E391E09093B4028093B30231
:1013800082E391E09093B6028093B50286E391E008
:101390009093B8028093B702C093B902F093BA0257
:1013A000E093BB027093BC026093BD02CF9108959D
:1013B000DC0115966C93159716964C93169770E072
:1013C000FB01E055FE4FE4911796EC931797FB0154
:1013D000EA50FE4F649118966C93189740E85EE3CC
:1013E00060E070E01D964D935D936D937C935097F4
:1013F0000895CF93DF93EC0162E08D810E946C0E23
:1014000040E358EF6FEF7FEF49875A876B877C8700
:10141000DF91CF9108954F925F926F927F928F925A
:101420009F92AF92BF92CF92DF92EF92FF920F9373
:101430001F93CF93DF93CDB7DEB728970FB6F894FD
:10144000DEBF0FBECDBF4A015B01280139011E2D51
:10145000E11010C026E636E646EE5FE3C501B401B2
:101460000E94961020E030E040E052E40E94DF0E3F
:101470004B015C0120E030E044E752E4C501B401D7
:101480000E94DF0E6B017C0120E030E048E852E46E
:10149000C501B4010E94DE0E2AE939E949E95FE39A
:1014A0000E9496109B01AC01C701B6010E94DF0E9D
:1014B0006B017C0122E133E840EC5DE3C301B20142
:1014C0000E9496109B01AC01C701B6010E94DF0E7D
:1014D00020E030E040E05FE30E949610F62ED72E29
:1014E000E82EC92E20E030E04EE952E40E9492102E
:1014F00018160CF07DC1A5019401C501B4010E942C
:1015000096106B017C01A3019201C301B2010E94FC
:1015100096106D837E838F83988721E133E243E0C9
:1015200050E4C501B4010E94961029E134E849E273
:1015300052E40E94DE0E69837A838B839C8326E1CA
:101540003BE442E251E4C301B2010E9496109B01C8
:10155000AC0169817A818B819C810E94DF0E698355
:101560007A838B839C8328E436E246E65EEBC501F2
:10157000B4010E949610A30192010E9496109B0153
:10158000AC0169817A818B819C810E94DF0E698325
:101590007A838B839C8320EE3FE040EE5BEBC701B8
:1015A000B6010E9496109B01AC0169817A818B8102
:1015B0009C810E94DF0E69837A838B839C8328EF52
:1015C00037E840E65DEB6D817E818F8198850E94D2
:1015D00096109B01AC0169817A818B819C810E946C
:1015E000DF0E69837A838B839C832CEA3DE041EA9A
:1015F0005AE3C701B6010E949610A30192010E940E
:1016000096109B01AC0169817A818B819C810E943B
:10161000DF0E69837A838B839C8328EC3FE84FE558
:101620005AE3C501B4010E9496102D813E814F817D
:1016300058850E9496109B01AC0169817A818B814B
:101640009C810E94DF0E69837A838B839C8321EFC8
:101650003BE845E056EBC701B6010E9496102D818C
:101660003E814F8158850E9496109B01AC01698193
:101670007A818B819C810E94DF0EF62ED72EE82E78
:10168000C92E20E030E040E551E4C301B2010E94E0
:10169000430F87FF5EC020E030E040EA52E4C5011E
:1016A000B4010E94921087FD54C020E030E040EE6B
:1016B00052E4C501B4010E94430F18160CF4AFC0E8
:1016C000A301920160E070E080E591E40E94DE0EEB
:1016D00020E030E040E85EE30E9496102B013C01E0
:1016E00020E030E04EEB52E4C501B4010E94DE0E72
:1016F0004B015C0120E030E0A9010E949210181615
:101700004CF4A501940160E070E088E891E40E9447
:10171000DE0E08C020E030E048E851E4C501B40125
:101720000E94DF0E2EE33DEE40E75DE30E9496103F
:101730000E94FD109B01AC01C301B2010E949610F2
:101740009B01AC016F2D7D2D8E2D9C2D0E94DE0EF8
:101750004BC020E030E04AEA52E4C301B2010E94EB
:10176000921018160CF044C020E030E040EA52E439
:10177000C501B4010E94921087FD3AC020E030E01C
:101780004EEA52E4C501B4010E94430F181684F1D9
:1017900020E030E04AEA52E4C301B2010E94DE0ECA
:1017A0002DEC3CEC4CEC5DE30E9496102B013C01CF
:1017B000A501940160E070E08EEA92E40E94DE0EE2
:1017C0002DEC3CEC4CE45EE30E9496109B01AC01D6
:1017D000C301B2010E9496109B01AC016F2D7D2DBB
:1017E0008E2D9C2D0E94DF0EF62ED72EE82EC92EB0
:1017F000111121C020E030E040E052E46F2D7D2D3A
:101800008E2D9C2D0E94DE0E26E838E34EE05FE32D
:101810000E949610F62ED72EE82EC92E0CC020E07E
:1018200030E04AEA52E4C301B2010E949210181655
:101830000CF4A4CFDDCF6F2D7D2D8E2D9C2D289601
:101840000FB6F894DEBF0FBECDBFDF91CF911F91D1
:101850000F91FF90EF90DF90CF90BF90AF909F904F
:101860008F907F906F905F904F900895AF92BF924E
:10187000CF92DF92EF92FF920F931F93CF93DF935C
:10188000EC01AF80662311F0BA2C01C0B12CA88501
:10189000B0E0AA0FBB1FA45CBD4F40E050E0BA010E
:1018A000FD0185919491FC0180818A218B1112C0E8
:1018B0008A019B010F5F1F4F2F4F3F4FCD84DE8466
:1018C000EF84F8884C155D056E057F0538F4B90185
:1018D000A801E6CF342F252FCB0104C030E020E053
:1018E00080E090E0632F722FDF91CF911F910F91D5
:1018F000FF90EF90DF90CF90BF90AF900895CF9280
:10190000DF92EF92FF920F931F93CF93DF93CDB7A8
:10191000DEB7C054D1400FB6F894DEBF0FBECDBFC6
:101920008C01F62E0E94BE02F11016C0F801C1848F
:10193000D284E384F4849B01AC012C193D094E0947
:101940005F0969017A0130EDC31637E0D306E1047F
:10195000F10410F48189BAC0F80161877287838726
:1019600094871482138212821182108261E0858131
:101970000E94A50E6AEF70E080E090E00E94ED0208
:1019800061E0F80185810E946C0E60E0F8018581BC
:101990000E94A50E64E170E080E090E00E94ED02FC
:1019A000F89461E0F80185810E94A50E88E290E03C
:1019B0000E94130362E0F80185810E946C0E8AE0A8
:1019C00090E00E94130360E0C8010E94360C672B70
:1019D000682B692B41F061E0C8010E94360C672B2F
:1019E000682B692B21F4F801118A78946EC06E017E
:1019F000FFEBCF1AFEEFDF0A9E012F5F3F4F790109
:101A000060E0C8010E94360CF70160837183828315
:101A1000938361E0C8010E94360CF70164837583EB
:101A200086839783F8E0EF0EF11CEC14FD0441F778
:101A300078949E012F5F3F4F790120E030E0F7015D
:101A4000408151816281738184819581A681B781B2
:101A50004115510561057105B1F10097A105B10569
:101A600091F1F901F595E795F595E795F595E795E8
:101A7000E00FF11FD080DD0C481759076A077B077C
:101A800010F0D08203C08D2D816080832F5F3F4F87
:101A9000F8E0EF0EF11C2832310589F6F8012481B7
:101AA00030E04081818190E0840F911D4281840F5C
:101AB000911D4381840F911D99272817390719F427
:101AC00081E0818B03C0F801118A80E0C05CDE4FA9
:101AD0000FB6F894DEBF0FBECDBFDF91CF911F913F
:101AE0000F91FF90EF90DF90CF900895CF92DF920B
:101AF000EF92FF920F931F93CF93DF93EC01162F7A
:101B0000642F0E947F0C882309F443C08E818B30A0
:101B100031F008F43EC08551823040F03AC06A810D
:101B200070E080E090E00E94E00F24C00A81602F06
:101B30006F7770E080E090E00E94E20F20E030E0FC
:101B400040E853E40E9496106B017C016B8170E0C9
:101B500080E090E00E94E20F9B01AC01C701B6015A
:101B60000E94DF0E2DEC3CEC4CEC5DE30E949610E5
:101B700007FD9058112389F026E636E646EE5FE32E
:101B80000E94961020E030E040E052E40E94DF0E18
:101B900004C060E070E080EC9FE7DF91CF911F917F
:101BA0000F91FF90EF90DF90CF900895CF92DF924A
:101BB000EF92FF92CF93DF93EC0160E00E947F0CE5
:101BC000882379F18E818B3029F158F1855182304B
:101BD00040F5688170E080E090E00E94E00F20E036
:101BE00030E040E853E40E9496106B017C0169816B
:101BF00070E080E090E00E94E20F9B01AC01C70121
:101C0000B6010E94DF0E2DEC3CEC4CEC5DE30E9433
:101C100096100BC0688170E080E090E00E94E00FB9
:101C200004C060E070E080EC9FE7DF91CF91FF900F
:101C3000EF90DF90CF90089590E0FC013197E13173
:101C4000F10508F048C0EE58FF4F0C9476118091D2
:101C500080008F7703C0809180008F7D809380000B
:101C6000089584B58F7702C084B58F7D84BD0895B3
:101C70008091B0008F7703C08091B0008F7D8093FA
:101C8000B0000895809190008F7707C080919000F8
:101C90008F7D03C080919000877F8093900008958E
:101CA0008091A0008F7707C08091A0008F7D03C036
:101CB0008091A000877F8093A000089580912001EB
:101CC0008F7707C0809120018F7D03C08091200114
:101CD000877F809320010895CF93DF9390E0FC01EC
:101CE000E055FE4F2491FC01EA50FE4F8491882379
:101CF00049F190E0880F991FFC01E059FD4FA59133
:101D0000B4918A5A9D4FFC01C591D4919FB761113E
:101D100008C0F8948C91209582238C93888182232B
:101D20000AC0623051F4F8948C91322F309583239D
:101D30008C938881822B888304C0F8948C91822BA9
:101D40008C939FBFDF91CF9108950F931F93CF93F3
:101D5000DF931F92CDB7DEB7282F30E0F901E659A7
:101D6000FE4F8491F901E055FE4F1491F901EA50BC
:101D7000FE4F04910023C9F0882321F069830E945B
:101D80001C0E6981E02FF0E0EE0FFF1FEA5AFD4FB5
:101D9000A591B4919FB7F8948C91611103C01095EF
:101DA000812301C0812B8C939FBF0F90DF91CF9136
:101DB0001F910F910895F8940C9480115058BB27EF
:101DC000AA270ED075C166D130F06BD120F031F466
:101DD0009F3F11F41EF45BC10EF4E095E7FB51C187
:101DE000E92F77D180F3BA17620773078407950745
:101DF00018F071F49EF58FC10EF4E0950B2EBA2FFA
:101E0000A02D0B01B90190010C01CA01A001112400
:101E1000FF27591B99F0593F50F4503E68F11A16AC
:101E2000F040A22F232F342F4427585FF3CF46953D
:101E300037952795A795F0405395C9F77EF41F165F
:101E4000BA0B620B730B840BBAF09150A1F0FF0F29
:101E5000BB1F661F771F881FC2F70EC0BA0F621F15
:101E6000731F841F48F4879577956795B795F79505
:101E70009E3F08F0B3CF9395880F08F09927EE0F97
:101E8000979587950895D9D008F481E008950CD0EE
:101E90000FC107D140F0FED030F021F45F3F19F0C0
:101EA000F0C0511139C1F3C014D198F39923C9F38B
:101EB0005523B1F3951B550BBB27AA276217730750
:101EC000840738F09F5F5F4F220F331F441FAA1F04
:101ED000A9F333D00E2E3AF0E0E830D091505040C4
:101EE000E695001CCAF729D0FE2F27D0660F771F72
:101EF000881FBB1F261737074807AB07B0E809F054
:101F0000BB0B802DBF01FF2793585F4F2AF09E3FE8
:101F1000510568F0B6C000C15F3FECF3983EDCF3BA
:101F2000869577956795B795F7959F5FC9F7880F61
:101F3000911D9695879597F90895E1E0660F771FB3
:101F4000881FBB1F621773078407BA0720F0621B44
:101F5000730B840BBA0BEE1F88F7E095089504D03D
:101F60006894B111D9C00895BCD088F09F5790F003
:101F7000B92F9927B751A0F0D1F0660F771F881FAE
:101F8000991F1AF0BA95C9F712C0B13081F0C3D0C9
:101F9000B1E00895C0C0672F782F8827B85F39F067
:101FA000B93FCCF3869577956795B395D9F73EF40D
:101FB00090958095709561957F4F8F4F9F4F0895B5
:101FC000E89409C097FB3EF49095809570956195D3
:101FD0007F4F8F4F9F4F9923A9F0F92F96E9BB2789
:101FE0009395F695879577956795B795F111F8CF05
:101FF000FAF4BB0F11F460FF1BC06F5F7F4F8F4F70
:102000009F4F16C0882311F096E911C0772321F065
:102010009EE8872F762F05C0662371F096E8862FFD
:1020200070E060E02AF09A95660F771F881FDAF754
:10203000880F9695879597F90895990F0008550F81
:10204000AA0BE0E8FEEF16161706E807F907C0F03E
:1020500012161306E407F50798F0621B730B840B46
:10206000950B39F40A2661F0232B242B252B21F420
:1020700008950A2609F4A140A6958FEF811D811DC0
:10208000089597F99F6780E870E060E008959FEFFA
:1020900080EC089500240A941616170618060906FF
:1020A000089500240A9412161306140605060895CE
:1020B000092E0394000C11F4882352F0BB0F40F456
:1020C000BF2B11F460FF04C06F5F7F4F8F4F9F4F96
:1020D000089557FD9058440F551F59F05F3F71F018
:1020E0004795880F97FB991F61F09F3F79F087957F
:1020F0000895121613061406551FF2CF4695F1DF08
:1021000008C0161617061806991FF1CF8695710597
:10211000610508940895E894BB2766277727CB01CB
:1021200097F908958ADF08F48FEF08950BD0C0CF98
:10213000B1DF28F0B6DF18F0952309F0A2CFA7CFC2
:102140001124EACFC6DFA0F3959FD1F3950F50E09D
:10215000551F629FF001729FBB27F00DB11D639F59
:10216000AA27F00DB11DAA1F649F6627B00DA11DFF
:10217000661F829F2227B00DA11D621F739FB00DA5
:10218000A11D621F839FA00D611D221F749F332715
:10219000A00D611D231F849F600D211D822F762FAE
:1021A0006A2F11249F5750408AF0E1F088234AF0AB
:1021B000EE0FFF1FBB1F661F771F881F91505040F7
:1021C000A9F79E3F510570F05CCFA6CF5F3FECF3BF
:1021D000983EDCF3869577956795B795F795E795E3
:1021E0009F5FC1F7FE2B880F911D9695879597F9F4
:1021F000089511F40EF44BCF42C073DFD0F399234E
:10220000D9F3CEF39F57550B87FF47D00024A0E6A4
:1022100040EA900180585695979528F4805C660FA7
:10222000771F881F20F026173707480730F4621BF6
:10223000730B840B202931294A2BA69517940794F8
:10224000202531254A2758F7660F771F881F20F071
:1022500026173707480730F4620B730B840B200DE9
:10226000311D411DA09581F7B901842F9158880F28
:10227000969587950895E1DE880B990B08959F3F09
:1022800031F0915020F4879577956795B795880F31
:10229000911D9695879597F9089591505040660F36
:1022A000771F881FD2F70895A1E21A2EAA1BBB1B25
:1022B000FD010DC0AA1FBB1FEE1FFF1FA217B30712
:1022C000E407F50720F0A21BB30BE40BF50B661F28
:1022D000771F881F991F1A9469F7609570958095EC
:1022E00090959B01AC01BD01CF010895EE0FFF1F3A
:1022F0000590F491E02D19940790F691E02D199432
:04230000F894FFCF7F
:102304004448547878207465737421004661696C7C
:10231400656420746F20726561642066726F6D203D
:102324004448542073656E736F72210048756D695B
:10233400646974793A20002025090054656D70653C
:102344007261747572653A2000202A432000202AA5
:102354004609004865617420696E6465783A200016
:10236400202A46006E616E00696E66006F76660014
:102374002E0000000000DE0580038A05B3059A05DF
:02238400D3057F
:00000001FF
